:020000040800F2
:1000000098040020A9010008EF0F0008AD0C0008BB
:10001000ED0F000839020008C510000800000000BC
:1000200000000000000000000000000013100008A5
:100030003B02000800000000111000081510000825
:10004000C3010008C3010008C3010008C301000880
:10005000C3010008C3010008C3010008C301000870
:10006000C3010008C3010008C3010008C301000860
:10007000C3010008C3010008C3010008C301000850
:10008000C3010008C3010008C3010008C301000840
:10009000C3010008C3010008C3010008C301000830
:1000A000C3010008C3010008C3010008C301000820
:1000B000C3010008C3010008C3010008C301000810
:1000C000C3010008C3010008C3010008C301000800
:1000D000C3010008C3010008C3010008C3010008F0
:1000E000C3010008C3010008C3010008C3010008E0
:1000F000C3010008C3010008C3010008C3010008D0
:10010000C30100080000000000000000C301000857
:10011000C3010008C3010008C3010008C3010008AF
:10012000C3010008C3010008C3010008C30100089F
:10013000C3010008C3010008000000000000000027
:10014000C3010008C3010008C3010008000000004B
:10015000000000000000000000000000000000009F
:10016000C3010008C3010008C3010008C30100085F
:10017000C3010008C3010008C3010008C30100084F
:10018000C3010008C30100080000000000000000D7
:10019000C3010008DFF80CD000F03CF8004800472D
:1001A000E5100008980400200648804706480047EC
:1001B000FEE7FEE7FEE7FEE7FEE7FEE7FEE7FEE717
:1001C000FEE7FEE75D1000089501000840EA010324
:1001D0009B0703D009E008C9121F08C0042AFAD2FD
:1001E00003E011F8013B00F8013B521EF9D27047C1
:1001F000D2B201E000F8012B491EFBD27047002269
:10020000F6E710B513460A4604461946FFF7F0FF15
:10021000204610BD064C074D06E0E06840F00103A3
:1002200094E8070098471034AC42F6D3FFF7B6FFC6
:10023000CC110008EC110008FEE7704770B50446C9
:1002400000F0FEF80546601C02D004480078044423
:1002500000F0F6F8401BA042FAD370BD4400002025
:100260002DE9F84FDFF8A0B1002301274FF0030A72
:100270004FF00F090BF1040EBEE000BF07FA03F6C2
:100280003440220072D04C68022C01D0122C12D1C2
:10029000DC0800EB840CDCF820405D07ED0E09FA69
:1002A00005F824EA0804D1F8108008FA05F848EAAD
:1002B0000408CCF82080D0F800805D0091F804C0DC
:1002C0000AFA05F40CF0030C28EA04080CFA05FC01
:1002D0004CEA080CC0F800C0D1F804C0BCF1010F12
:1002E00008D0BCF1020F05D0BCF1110F02D0BCF157
:1002F000120F16D1D0F808C0D1F80C802CEA040CEB
:1003000008FA05F848EA0C08C0F80880D0F804C0DC
:100310002CEA060C0E79C6F300169E4046EA0C063F
:100320004660C668A6438C68AC403443C4604C68E1
:10033000E40060D5354CA56945F00105A561A469C7
:1003400023F0030504F001040094314C2E19B46825
:100350009D074FEA157C09FA0CF5AC43B0F1904FBC
:1003600005D02C4DA84204D101251CE043E0002516
:1003700019E0294DA84201D1022514E0274DA842D9
:1003800001D103250FE0264DA84201D104250AE042
:10039000244DA84201D1052505E0234DA84201D1F5
:1003A000062500E0072505FA0CF52543B560DBF8C6
:1003B00000405D464E689443F60300D514432C601C
:1003C000DEF8004075464E689443B60300D51443EA
:1003D0002C600D4D08352C684E689443F60200D50C
:1003E00014432C60084D0C352C684E689443B602BB
:1003F00000D514432C605B1C0A681446DA407FF475
:100400003DAFBDE8F88F000000040140001002403D
:10041000000001400004004800080048000C0048AB
:100420000010004800140048001800480069084007
:1004300000D0012070470AB1816170478162704726
:10044000014880687047000044000020024881682D
:10045000027811448160704744000020074810B5BD
:10046000016841F010010160032000F05FF80020F6
:1004700000F006F800F024F8002010BD0020024033
:1004800070B50D4D04464FF47A712878B1FBF0F049
:100490000A490968B1FBF0F000F0F4FB48B9102CF0
:1004A00007D200222146501E00F020F800206C6088
:1004B00070BD012070BD00004400002050000020ED
:1004C000094808B5816941F001018161816901F044
:1004D00001010091C16941F08051C161C06900F022
:1004E0008050009008BD000000100240F0B40E4B98
:1004F0001B680C46C3F30223C3F10705042D00D982
:100500000425191D072901D2002300E0DB1E012666
:1005100006FA05F1491E214099409E40761E16407C
:100520003143F0BC00F064BD0CED00E0064900F082
:10053000070208684FF6FF03184040EA0220034A0A
:1005400010430860704700000CED00E00000FA0561
:100550002DE9F0470F46050069D04A4E306800F09B
:100560000700B84209D2306820F0070038433060F5
:10057000306800F00700B84259D12878424C800713
:1005800005D56068A96820F0F0000843606028780D
:10059000C0073DD06968012001290DD0022923D070
:1005A0005FF0020393FAA3F2B2FA82F242F0200261
:1005B000520904D0226803E04FF40033F2E7626A84
:1005C00093FAA3F3B3FA83F303F01F0398400242B4
:1005D0002DD0606820F0030008436060FFF730FF13
:1005E000804641F288390CE04FF00073DAE700BF33
:1005F000FFF726FFA0EB0801494502D90320BDE81B
:10060000F0876068696800F00C00B0EB810FEFD1F3
:10061000306800F00700B8420BD9306820F00700BE
:1006200038433060306800F00700B84201D0012044
:10063000E5E72878400705D56068E96820F4E060C0
:10064000084360602878000706D56068296920F4AF
:10065000605040EAC100606000F01CF86168F02260
:1006600092FAA2F201F0F001B2FA82F2D140074A06
:10067000515CC840064908600020FFF701FF0020D8
:10068000BDE7000000200240001002407C1100087D
:1006900050000020124B10B55968124801F00C02AE
:1006A000042A1CD0082A1AD14FF4701494FAA4F426
:1006B00001F47012B4FA84F4E2400B4CDB6AA25CE1
:1006C0000F2494FAA4F403F00F03B4FA84F4E34083
:1006D000054CC9031034E35CB0FBF3F0504310BD8C
:1006E0000010024000127A005C1100082DE9F84F5A
:1006F00004007DD02078FA4DC0074FF0010637D0B6
:1007000068687704C0F38100012819D06868C0F3D5
:100710008100022804D16868C0F3C13002280FD0DC
:100720006068B0F5803F24D010B1B0F5A02F2AD07A
:10073000286820F480302860286820F480201BE09E
:1007400097FAA7F0B0FA80F040F02000400901D0FD
:10075000286800E0686A97FAA7F1B1FA81F101F020
:100760001F0106FA01F108424ED060680028C0D08F
:100770004AE0286840F480302860606820B3FFF7C2
:100780005FFE80460AE0286840F480202860F0E799
:10079000FFF756FEA0EB0800642873D897FAA7F07D
:1007A000B0FA80F040F02000400901D0286800E055
:1007B000686A97FAA7F1B1FA81F101F01F0106FA10
:1007C00001F10842E4D01FE0FFF73AFE804605E061
:1007D000FFF736FEA0EB08006428DED897FAA7F0F2
:1007E000B0FA80F040F02000400902D0286801E013
:1007F000B9E0686A97FAA7F1B1FA81F101F01F0137
:1008000006FA01F10842E3D12078DFF8D8828007A8
:100810004FF0000A4FF002075DD568684FF0F80B03
:1008200010F00C0F15D06868C0F38100022804D1C5
:100830006868C0F3C13001280BD0E068A0B396FA15
:10084000A6F0B0FA80F048F82060FFF7F9FD814685
:1008500020E097FAA7F0B0FA80F040F020004009BD
:1008600001D0286800E0686A97FAA7F1B1FA81F12F
:1008700001F01F0106FA01F1084221D0E0680128C9
:1008800071D11DE056E100BFFFF7DAFDA0EB0900D2
:100890000228A2D897FAA7F0B0FA80F040F0200022
:1008A000400902D0286801E016E0686A97FAA7F1CB
:1008B000B1FA81F101F01F0106FA01F10842E3D01B
:1008C00028689BFAABF22169B2FA82F220F0F800B4
:1008D00091400843286024E096FAA6F1B1FA81F12C
:1008E00048F821A0FFF7ACFD814605E0FFF7A8FD21
:1008F000A0EB09000228CCD897FAA7F0B0FA80F054
:1009000040F02000400901D0286800E0686A97FAAA
:10091000A7F1B1FA81F101F01F0106FA01F10842D5
:10092000E4D1207800076AD56069A0B396FAA6F0F2
:10093000B0FA80F008EB8000C0F88064FFF780FD1B
:10094000814605E0FFF77CFDA0EB09000228A0D856
:1009500097FAA7F0B0FA80F040F06000B6EB501FB5
:1009600002D128680CE073E197FAA7F0B0FA80F0A2
:1009700040F06000B7EB501F01D1286A00E0686AC0
:1009800097FAA7F1B1FA81F101F01F0106FA01F21D
:100990001042D7D033E0FFE796FAA6F0B0FA80F025
:1009A00008EB8000C0F880A4FFF74AFD814605E00F
:1009B000FFF746FDA0EB090002289CD897FAA7F0A4
:1009C000B0FA80F040F06000B6EB501F01D128680B
:1009D0000BE097FAA7F0B0FA80F040F06000B7EBB8
:1009E000501F01D1286A00E0686A97FAA7F1B1FAAE
:1009F00081F101F01F0106FA01F21042D8D12078EE
:100A0000400774D5E8694FF00009C00009D4E869CF
:100A100040F08050E861E8694FF0010900F0805033
:100A2000009031480168C90512D4016841F4807111
:100A30000160FFF705FD834606E000BFFFF700FDFC
:100A4000A0EB0B00642875D827480068C005F5D5D1
:100A5000A06801280AD008B1052811D0286A20F022
:100A600001002862286A20F0040002E0286A40F0B1
:100A700001002862A068C8B3FFF7E2FC83460DE0DE
:100A8000286A40F004002862F0E700BFFFF7D8FCB6
:100A9000A0EB0B0141F2883081424BD897FAA7F0C6
:100AA000B0FA80F040F04000B6EB501F01D128684A
:100AB0000BE097FAA7F0B0FA80F040F04000B7EBF7
:100AC000501F01D1286A00E0686A97FAA7F1B1FACD
:100AD00081F101F01F0106FA01F21042D6D035E093
:100AE00000100240000042420070004000E034E08C
:100AF000FFF7A6FC834607E0FFF7A2FCA0EB0B0183
:100B000041F28830814215D897FAA7F0B0FA80F008
:100B100040F04000B6EB501F01D128680CE097FA76
:100B2000A7F0B0FA80F040F04000B7EB501F02D1C0
:100B3000286A01E089E0686A97FAA7F1B1FA81F1C1
:100B400001F01F0106FA01F21042D5D1B9F1000FF0
:100B500003D0E86920F08050E861A06980B369683B
:100B6000C1F38101022973D04FF080714F00022838
:100B7000524609D091FAA1F0B0FA80F048F820204E
:100B8000FFF75EFC044664E091FAA1F0B0FA80F051
:100B90008A46C14648F82020FFF752FC804605E00F
:100BA000FFF74EFCA0EB080002284ED897FAA7F0FA
:100BB000B0FA80F040F02000400902D0286801E03F
:100BC0005CE0686A97FAA7F1B1FA81F101F01F01C0
:100BD00006FA01F10842E3D1E86A616A20F00F00E9
:100BE0000843E862D4E907100843696821F47611E4
:100BF000084368609AFAAAF0B0FA80F049F82060D9
:100C0000FFF71EFC044604E0FFF71AFC001B022855
:100C10001BD897FAA7F0B0FA80F040F02000400906
:100C200001D0286800E0686A97FAA7F1B1FA81F16B
:100C300001F01F0106FA01F10842E5D01EE000BFF5
:100C4000FFF7FEFB001B022803D90320BDE8F88F45
:100C500016E097FAA7F0B0FA80F040F020004009C3
:100C600001D0286800E0686A97FAA7F1B1FA81F12B
:100C700001F01F0106FA01F10842E1D10020E5E789
:100C80000120E3E710B5401EB0F1807F01D30120C1
:100C900010BD4FF0E02460610F21601700F0A8F94B
:100CA0000020A06107202061002010BDFEE70000A9
:100CB000F0B5274E0121254A3378B77801FA03F4BD
:100CC0007378F67801FA03F301FA07F5B140B0B191
:100CD00001281DD002282CD003280FD1D0694668E6
:100CE0008E43466010694168214341605069416804
:100CF000194341609069416829434160F0BD106922
:100D00004668A6434660506944681C43446007E057
:100D1000506946689E4346601069436823434360B8
:100D2000906943682B434360D06942680A4342603C
:100D3000F0BD90694668AE4346601069456825433A
:100D40004560506944681C434460EDE7540000204E
:100D50000000002070B5104900200D8D4C8D8A8D4B
:100D6000CB8D0E4925FA00F6F60700D0087024FA5C
:100D700000F6F60700D0487022FA00F6F60700D019
:100D8000887023FA00F6F60700D0C870401CC0B285
:100D90001028E7D370BD00005400002000000020A0
:100DA00070B5014630221C48FFF710FAFFF7D2FF5A
:100DB000194C22695368194901200D7800FA05F58C
:100DC0002B435360626953684D7800FA05F52B4355
:100DD0005360A26953688D7800FA05F52B43536080
:100DE000E2695368C978884003435360218D01222A
:100DF0002069FFF720FB618D01226069FFF71BFB73
:100E0000A18D0122A069FFF716FBE18DE069BDE825
:100E100070400122FFF70FBB5400002000000020AB
:100E200070B504460020FFF743FF3D4D298C28682C
:100E3000FFF7FCFA00B101202070698C6868FFF7A9
:100E4000F5FA00B101202071A98CA868FFF7EEFA2D
:100E500000B101202072E98CE868FFF7E7FA00B1E1
:100E6000012020730120FFF723FF298C2868FFF75A
:100E7000DDFA00B101206070698C6868FFF7D6FA6E
:100E800000B101206071A98CA868FFF7CFFA00B10A
:100E900001206072E98CE868FFF7C8FA00B1012010
:100EA00060730220FFF704FF298C2868FFF7BEFA61
:100EB00000B10120A070698C6868FFF7B7FA00B133
:100EC0000120A071A98CA868FFF7B0FA00B1012039
:100ED000A072E98CE868FFF7A9FA00B10120A073BD
:100EE0000320FFF7E5FE298C2868FFF79FFA00B181
:100EF0000120E070698C6868FFF798FA00B1012062
:100F0000E071A98CA868FFF791FA00B10120E072A6
:100F1000E98CE868FFF78AFA00B10120E07370BD40
:100F2000540000202DE9F04186B014216846FFF7F7
:100F300066F92B48416941F480214161416901F41E
:100F400080210591416941F400214161416901F429
:100F500000210591416941F40031416140694FF43C
:100F6000806600F400304FF0904705900022314633
:100F70003846FFF760FADFF86C80002238214046DF
:100F8000FFF759FA00240225009669464046CDE94C
:100F90000145FFF765F980208DE831006946124868
:100FA000FFF75EF94FF440708DE83100694638462E
:100FB000FFF756F901250096CDE9015469463846F8
:100FC0000394FFF74DF938200090CDE901546946AC
:100FD00040460394FFF744F906B0BDE8F0810000F5
:100FE000001002400004004800080048FEE7704777
:100FF0000907090E002806DA00F00F0000F1E020D2
:1010000080F8141D704700F1E02080F8001470474C
:1010100070477047FFF71ABA10B590B0282168469C
:10102000FFF7EDF814210AA8FFF7E9F80220009075
:101030000120039010200024049006946846FFF7D6
:1010400055FB0F20CDE90A040C940D9400210AA849
:101050000E94FFF77DFA10B010BD0000144801682F
:1010600041F4700101601348016841F00101016021
:101070004168114A114041600168104A1140016005
:10108000016821F480210160416821F4FE01416082
:10109000C16A21F00F01C162016B094A114001636D
:1010A000002181600249C003803908607047000058
:1010B00088ED00E0001002400CC07FF8FFFFF6FE54
:1010C000CCFC00FFFEE702E008C8121F08C1002A9E
:1010D000FAD170477047002001E001C1121F002AB9
:1010E000FBD170478CB0FFF7B9F9FFF795FFFFF719
:1010F00019FF4FF090411648164ACDE90001CDE99D
:101100000212CDE90410069007904FF48060ADF80C
:1011100020008110ADF822104110ADF82800082001
:10112000ADF82A002020ADF82C00ADF824101020D6
:101130008021ADF82E00ADF826106846FFF730FE8E
:101140000548FFF76DFE6420FFF778F8F8E7000028
:101150000004004800080048840000200203040541
:10116000060708090A0B0C0D0E0F101001020304EC
:1011700005060708090A0B0C0D0E0F1000000000F1
:101180000000000001020304060708092300000014
:101190002A00000030000000310000003200000092
:1011A000330000003400000035000000360000006D
:1011B0003700000038000000390000004100000046
:1011C000420000004300000044000000EC11000851
:1011D0000000002054000000C61000084012000863
:1011E0005400002044040000D61000080000000055
:1011F000981100089C110008A0110008BC110008FB
:10120000A4110008A8110008AC110008C0110008C2
:10121000B0110008B4110008B8110008C41100088A
:1012200090110008941100088C110008C8110008E2
:1012300001000000100000000000000000127A0011
:040000050800019559
:00000001FF
